{
  "contractName": "Airbnb",
  "abi": [
    {
      "inputs": [],
      "stateMutability": "nonpayable",
      "type": "constructor"
    },
    {
      "anonymous": false,
      "inputs": [
        {
          "indexed": false,
          "internalType": "uint256",
          "name": "id",
          "type": "uint256"
        },
        {
          "indexed": false,
          "internalType": "address",
          "name": "guest",
          "type": "address"
        },
        {
          "indexed": false,
          "internalType": "uint256",
          "name": "numberOfDays",
          "type": "uint256"
        },
        {
          "indexed": false,
          "internalType": "uint256",
          "name": "price",
          "type": "uint256"
        }
      ],
      "name": "PropertyBookedEvent",
      "type": "event"
    },
    {
      "anonymous": false,
      "inputs": [
        {
          "indexed": false,
          "internalType": "string",
          "name": "name",
          "type": "string"
        },
        {
          "indexed": false,
          "internalType": "string",
          "name": "propertyAddress",
          "type": "string"
        },
        {
          "indexed": false,
          "internalType": "string",
          "name": "description",
          "type": "string"
        },
        {
          "indexed": false,
          "internalType": "string",
          "name": "imgUrl",
          "type": "string"
        },
        {
          "indexed": false,
          "internalType": "uint256",
          "name": "pricePerDay",
          "type": "uint256"
        },
        {
          "indexed": false,
          "internalType": "uint256",
          "name": "id",
          "type": "uint256"
        }
      ],
      "name": "PropertyListedEvent",
      "type": "event"
    },
    {
      "inputs": [],
      "name": "counter",
      "outputs": [
        {
          "internalType": "uint256",
          "name": "",
          "type": "uint256"
        }
      ],
      "stateMutability": "view",
      "type": "function",
      "constant": true
    },
    {
      "inputs": [],
      "name": "owner",
      "outputs": [
        {
          "internalType": "address",
          "name": "",
          "type": "address"
        }
      ],
      "stateMutability": "view",
      "type": "function",
      "constant": true
    },
    {
      "inputs": [
        {
          "internalType": "uint256",
          "name": "",
          "type": "uint256"
        }
      ],
      "name": "properties",
      "outputs": [
        {
          "internalType": "address",
          "name": "owner",
          "type": "address"
        },
        {
          "internalType": "address",
          "name": "guest",
          "type": "address"
        },
        {
          "internalType": "string",
          "name": "name",
          "type": "string"
        },
        {
          "internalType": "string",
          "name": "propertyAddress",
          "type": "string"
        },
        {
          "internalType": "string",
          "name": "description",
          "type": "string"
        },
        {
          "internalType": "string",
          "name": "imgUrl",
          "type": "string"
        },
        {
          "internalType": "uint256",
          "name": "bookingStartsAt",
          "type": "uint256"
        },
        {
          "internalType": "uint256",
          "name": "bookingEndsAt",
          "type": "uint256"
        },
        {
          "internalType": "uint256",
          "name": "pricePerDay",
          "type": "uint256"
        },
        {
          "internalType": "uint256",
          "name": "id",
          "type": "uint256"
        },
        {
          "internalType": "bool",
          "name": "isBooked",
          "type": "bool"
        }
      ],
      "stateMutability": "view",
      "type": "function",
      "constant": true
    },
    {
      "inputs": [
        {
          "internalType": "uint256",
          "name": "",
          "type": "uint256"
        }
      ],
      "name": "rentalIds",
      "outputs": [
        {
          "internalType": "uint256",
          "name": "",
          "type": "uint256"
        }
      ],
      "stateMutability": "view",
      "type": "function",
      "constant": true
    },
    {
      "inputs": [
        {
          "internalType": "string",
          "name": "name",
          "type": "string"
        },
        {
          "internalType": "string",
          "name": "propertyAddress",
          "type": "string"
        },
        {
          "internalType": "string",
          "name": "description",
          "type": "string"
        },
        {
          "internalType": "string",
          "name": "imgUrl",
          "type": "string"
        },
        {
          "internalType": "uint256",
          "name": "pricePerDay",
          "type": "uint256"
        }
      ],
      "name": "listProperty",
      "outputs": [],
      "stateMutability": "nonpayable",
      "type": "function"
    },
    {
      "inputs": [
        {
          "internalType": "uint256",
          "name": "id",
          "type": "uint256"
        },
        {
          "internalType": "uint256",
          "name": "startDate",
          "type": "uint256"
        },
        {
          "internalType": "uint256",
          "name": "endDate",
          "type": "uint256"
        }
      ],
      "name": "getDuePrice",
      "outputs": [
        {
          "internalType": "uint256",
          "name": "",
          "type": "uint256"
        }
      ],
      "stateMutability": "view",
      "type": "function",
      "constant": true
    },
    {
      "inputs": [
        {
          "internalType": "uint256",
          "name": "propertyId",
          "type": "uint256"
        },
        {
          "internalType": "uint256",
          "name": "startDate",
          "type": "uint256"
        },
        {
          "internalType": "uint256",
          "name": "endDate",
          "type": "uint256"
        }
      ],
      "name": "bookProperty",
      "outputs": [],
      "stateMutability": "payable",
      "type": "function",
      "payable": true
    },
    {
      "inputs": [
        {
          "internalType": "uint256",
          "name": "propertyId",
          "type": "uint256"
        }
      ],
      "name": "unBookProperty",
      "outputs": [],
      "stateMutability": "nonpayable",
      "type": "function"
    }
  ],
  "bytecode": "0x608060405234801561001057600080fd5b506000600181905550336000806101000a81548173ffffffffffffffffffffffffffffffffffffffff021916908373ffffffffffffffffffffffffffffffffffffffff1602179055506115eb806100686000396000f3fe60806040526004361061007b5760003560e01c80636989a6491161004e5780636989a6491461013a5780638da5cb5b14610156578063ebfa74c914610181578063f7b10808146101be5761007b565b80632780842a1461008057806346e17d4a146100bd5780634f493050146100e657806361bc221a1461010f575b600080fd5b34801561008c57600080fd5b506100a760048036038101906100a29190610aae565b610205565b6040516100b49190610b10565b60405180910390f35b3480156100c957600080fd5b506100e460048036038101906100df9190610c71565b610257565b005b3480156100f257600080fd5b5061010d60048036038101906101089190610d5c565b610412565b005b34801561011b57600080fd5b50610124610552565b6040516101319190610b10565b60405180910390f35b610154600480360381019061014f9190610aae565b610558565b005b34801561016257600080fd5b5061016b610755565b6040516101789190610dca565b60405180910390f35b34801561018d57600080fd5b506101a860048036038101906101a39190610d5c565b610779565b6040516101b59190610b10565b60405180910390f35b3480156101ca57600080fd5b506101e560048036038101906101e09190610d5c565b61079d565b6040516101fc9b9a99989796959493929190610e7f565b60405180910390f35b60008060036000868152602001908152602001600020905060006305265c0085856102309190610f75565b61023a9190610fd8565b905081600801548161024c9190611009565b925050509392505050565b6000600360006001548152602001908152602001600020905085816002019081610281919061126f565b5084816003019081610293919061126f565b50838160040190816102a5919061126f565b50828160050190816102b7919061126f565b508181600801819055506001548160090181905550600081600a0160006101000a81548160ff0219169083151502179055506000816006018190555060008160070181905550338160000160006101000a81548173ffffffffffffffffffffffffffffffffffffffff021916908373ffffffffffffffffffffffffffffffffffffffff16021790555060008160010160006101000a81548173ffffffffffffffffffffffffffffffffffffffff021916908373ffffffffffffffffffffffffffffffffffffffff160217905550600260015490806001815401808255809150506001900390600052602060002001600090919091909150557ffd4c11c8479504da167b6038cb455ff18006f27fbe31be2b2d65f0acdd88729386868686866001546040516103ea96959493929190611341565b60405180910390a160016000815480929190610405906113be565b9190505550505050505050565b3373ffffffffffffffffffffffffffffffffffffffff166003600083815260200190815260200160002060000160009054906101000a900473ffffffffffffffffffffffffffffffffffffffff1673ffffffffffffffffffffffffffffffffffffffff16146104b6576040517f08c379a00000000000000000000000000000000000000000000000000000000081526004016104ad90611478565b60405180910390fd5b6001151560036000838152602001908152602001600020600a0160009054906101000a900460ff16151514610520576040517f08c379a0000000000000000000000000000000000000000000000000000000008152600401610517906114e4565b60405180910390fd5b600060036000838152602001908152602001600020600a0160006101000a81548160ff02191690831515021790555050565b60015481565b60006305265c00838361056b9190610f75565b6105759190610fd8565b90506003600085815260200190815260200160002060080154816105999190611009565b3410156105db576040517f08c379a00000000000000000000000000000000000000000000000000000000081526004016105d290611550565b60405180910390fd5b6003600085815260200190815260200160002060000160009054906101000a900473ffffffffffffffffffffffffffffffffffffffff1673ffffffffffffffffffffffffffffffffffffffff166108fc349081150290604051600060405180830381858888f19350505050158015610657573d6000803e3d6000fd5b50600160036000868152602001908152602001600020600a0160006101000a81548160ff021916908315150217905550826003600086815260200190815260200160002060060181905550816003600086815260200190815260200160002060070181905550336003600086815260200190815260200160002060010160006101000a81548173ffffffffffffffffffffffffffffffffffffffff021916908373ffffffffffffffffffffffffffffffffffffffff1602179055507fd4b9cad7e4cd8ddab7b1472716b72454c8dae404ca7e5930058c5e9099dafdbf843383346040516107479493929190611570565b60405180910390a150505050565b60008054906101000a900473ffffffffffffffffffffffffffffffffffffffff1681565b6002818154811061078957600080fd5b906000526020600020016000915090505481565b60036020528060005260406000206000915090508060000160009054906101000a900473ffffffffffffffffffffffffffffffffffffffff16908060010160009054906101000a900473ffffffffffffffffffffffffffffffffffffffff169080600201805461080c90611092565b80601f016020809104026020016040519081016040528092919081815260200182805461083890611092565b80156108855780601f1061085a57610100808354040283529160200191610885565b820191906000526020600020905b81548152906001019060200180831161086857829003601f168201915b50505050509080600301805461089a90611092565b80601f01602080910402602001604051908101604052809291908181526020018280546108c690611092565b80156109135780601f106108e857610100808354040283529160200191610913565b820191906000526020600020905b8154815290600101906020018083116108f657829003601f168201915b50505050509080600401805461092890611092565b80601f016020809104026020016040519081016040528092919081815260200182805461095490611092565b80156109a15780601f10610976576101008083540402835291602001916109a1565b820191906000526020600020905b81548152906001019060200180831161098457829003601f168201915b5050505050908060050180546109b690611092565b80601f01602080910402602001604051908101604052809291908181526020018280546109e290611092565b8015610a2f5780601f10610a0457610100808354040283529160200191610a2f565b820191906000526020600020905b815481529060010190602001808311610a1257829003601f168201915b50505050509080600601549080600701549080600801549080600901549080600a0160009054906101000a900460ff1690508b565b6000604051905090565b600080fd5b600080fd5b6000819050919050565b610a8b81610a78565b8114610a9657600080fd5b50565b600081359050610aa881610a82565b92915050565b600080600060608486031215610ac757610ac6610a6e565b5b6000610ad586828701610a99565b9350506020610ae686828701610a99565b9250506040610af786828701610a99565b9150509250925092565b610b0a81610a78565b82525050565b6000602082019050610b256000830184610b01565b92915050565b600080fd5b600080fd5b6000601f19601f8301169050919050565b7f4e487b7100000000000000000000000000000000000000000000000000000000600052604160045260246000fd5b610b7e82610b35565b810181811067ffffffffffffffff82111715610b9d57610b9c610b46565b5b80604052505050565b6000610bb0610a64565b9050610bbc8282610b75565b919050565b600067ffffffffffffffff821115610bdc57610bdb610b46565b5b610be582610b35565b9050602081019050919050565b82818337600083830152505050565b6000610c14610c0f84610bc1565b610ba6565b905082815260208101848484011115610c3057610c2f610b30565b5b610c3b848285610bf2565b509392505050565b600082601f830112610c5857610c57610b2b565b5b8135610c68848260208601610c01565b91505092915050565b600080600080600060a08688031215610c8d57610c8c610a6e565b5b600086013567ffffffffffffffff811115610cab57610caa610a73565b5b610cb788828901610c43565b955050602086013567ffffffffffffffff811115610cd857610cd7610a73565b5b610ce488828901610c43565b945050604086013567ffffffffffffffff811115610d0557610d04610a73565b5b610d1188828901610c43565b935050606086013567ffffffffffffffff811115610d3257610d31610a73565b5b610d3e88828901610c43565b9250506080610d4f88828901610a99565b9150509295509295909350565b600060208284031215610d7257610d71610a6e565b5b6000610d8084828501610a99565b91505092915050565b600073ffffffffffffffffffffffffffffffffffffffff82169050919050565b6000610db482610d89565b9050919050565b610dc481610da9565b82525050565b6000602082019050610ddf6000830184610dbb565b92915050565b600081519050919050565b600082825260208201905092915050565b60005b83811015610e1f578082015181840152602081019050610e04565b60008484015250505050565b6000610e3682610de5565b610e408185610df0565b9350610e50818560208601610e01565b610e5981610b35565b840191505092915050565b60008115159050919050565b610e7981610e64565b82525050565b600061016082019050610e95600083018e610dbb565b610ea2602083018d610dbb565b8181036040830152610eb4818c610e2b565b90508181036060830152610ec8818b610e2b565b90508181036080830152610edc818a610e2b565b905081810360a0830152610ef08189610e2b565b9050610eff60c0830188610b01565b610f0c60e0830187610b01565b610f1a610100830186610b01565b610f28610120830185610b01565b610f36610140830184610e70565b9c9b505050505050505050505050565b7f4e487b7100000000000000000000000000000000000000000000000000000000600052601160045260246000fd5b6000610f8082610a78565b9150610f8b83610a78565b9250828203905081811115610fa357610fa2610f46565b5b92915050565b7f4e487b7100000000000000000000000000000000000000000000000000000000600052601260045260246000fd5b6000610fe382610a78565b9150610fee83610a78565b925082610ffe57610ffd610fa9565b5b828204905092915050565b600061101482610a78565b915061101f83610a78565b9250817fffffffffffffffffffffffffffffffffffffffffffffffffffffffffffffffff048311821515161561105857611057610f46565b5b828202905092915050565b7f4e487b7100000000000000000000000000000000000000000000000000000000600052602260045260246000fd5b600060028204905060018216806110aa57607f821691505b6020821081036110bd576110bc611063565b5b50919050565b60008190508160005260206000209050919050565b60006020601f8301049050919050565b600082821b905092915050565b6000600883026111257fffffffffffffffffffffffffffffffffffffffffffffffffffffffffffffffff826110e8565b61112f86836110e8565b95508019841693508086168417925050509392505050565b6000819050919050565b600061116c61116761116284610a78565b611147565b610a78565b9050919050565b6000819050919050565b61118683611151565b61119a61119282611173565b8484546110f5565b825550505050565b600090565b6111af6111a2565b6111ba81848461117d565b505050565b5b818110156111de576111d36000826111a7565b6001810190506111c0565b5050565b601f821115611223576111f4816110c3565b6111fd846110d8565b8101602085101561120c578190505b611220611218856110d8565b8301826111bf565b50505b505050565b600082821c905092915050565b600061124660001984600802611228565b1980831691505092915050565b600061125f8383611235565b9150826002028217905092915050565b61127882610de5565b67ffffffffffffffff81111561129157611290610b46565b5b61129b8254611092565b6112a68282856111e2565b600060209050601f8311600181146112d957600084156112c7578287015190505b6112d18582611253565b865550611339565b601f1984166112e7866110c3565b60005b8281101561130f578489015182556001820191506020850194506020810190506112ea565b8683101561132c5784890151611328601f891682611235565b8355505b6001600288020188555050505b505050505050565b600060c082019050818103600083015261135b8189610e2b565b9050818103602083015261136f8188610e2b565b905081810360408301526113838187610e2b565b905081810360608301526113978186610e2b565b90506113a66080830185610b01565b6113b360a0830184610b01565b979650505050505050565b60006113c982610a78565b91507fffffffffffffffffffffffffffffffffffffffffffffffffffffffffffffffff82036113fb576113fa610f46565b5b600182019050919050565b7f4f6e6c79207468652050726f7065727479204f776e65722063616e20756e626f60008201527f6f6b207468652070726f70657274790000000000000000000000000000000000602082015250565b6000611462602f83610df0565b915061146d82611406565b604082019050919050565b6000602082019050818103600083015261149181611455565b9050919050565b7f50726f7065727479206973206e6f7420626f6f6b656400000000000000000000600082015250565b60006114ce601683610df0565b91506114d982611498565b602082019050919050565b600060208201905081810360008301526114fd816114c1565b9050919050565b7f53656e64206d6f7265204554482e000000000000000000000000000000000000600082015250565b600061153a600e83610df0565b915061154582611504565b602082019050919050565b600060208201905081810360008301526115698161152d565b9050919050565b60006080820190506115856000830187610b01565b6115926020830186610dbb565b61159f6040830185610b01565b6115ac6060830184610b01565b9594505050505056fea26469706673582212202cf78c2304fb8c0f89d424c7aa2c0620530e9ccc93239aecf59265472ce8f4ee64736f6c63430008100033",
  "immutableReferences": {},
  "source": "// SPDX-License-Identifier: MIT\npragma solidity ^0.8.16;\n\ncontract Airbnb {\n    address public owner;\n    uint256 public counter;\n    uint256[] public rentalIds;\n\n    constructor() {\n        counter = 0;\n        owner = msg.sender;\n    }\n\n    struct PropertyInfo {\n        address owner;\n        address guest;\n        string name;\n        string propertyAddress;\n        string description;\n        string imgUrl;\n        uint256 bookingStartsAt;\n        uint256 bookingEndsAt;\n        uint256 pricePerDay;\n        uint256 id;\n        bool isBooked;\n    }\n\n    event PropertyListedEvent(\n        string name,\n        string propertyAddress,\n        string description,\n        string imgUrl,\n        uint256 pricePerDay,\n        uint256 id\n    );\n\n    mapping(uint256 => PropertyInfo) public properties;\n\n    event PropertyBookedEvent(\n        uint256 id,\n        address guest,\n        uint256 numberOfDays,\n        uint256 price\n    );\n\n    function listProperty(\n        string memory name,\n        string memory propertyAddress,\n        string memory description,\n        string memory imgUrl,\n        uint256 pricePerDay\n    ) public {\n        PropertyInfo storage newProperty = properties[counter];\n\n        newProperty.name = name;\n        newProperty.propertyAddress = propertyAddress;\n        newProperty.description = description;\n        newProperty.imgUrl = imgUrl;\n        newProperty.pricePerDay = pricePerDay;\n        newProperty.id = counter;\n        newProperty.isBooked = false;\n        newProperty.bookingStartsAt = 0;\n        newProperty.bookingEndsAt = 0;\n        newProperty.owner = msg.sender;\n        newProperty.guest = address(0);\n\n        rentalIds.push(counter);\n\n        emit PropertyListedEvent(\n            name,\n            propertyAddress,\n            description,\n            imgUrl,\n            pricePerDay,\n            counter\n        );\n        counter++;\n    }\n\n    function getDuePrice(\n        uint256 id,\n        uint256 startDate,\n        uint256 endDate\n    ) public view returns (uint256) {\n        PropertyInfo storage property = properties[id];\n\n        uint256 numberOfDays = (endDate - startDate) / 86400000;\n        return numberOfDays * property.pricePerDay;\n    }\n\n    function bookProperty(\n        uint256 propertyId,\n        uint256 startDate,\n        uint256 endDate\n    ) public payable {\n        uint256 numberOfDays = (endDate - startDate) / 86400000;\n\n        require(\n            msg.value >= numberOfDays * properties[propertyId].pricePerDay,\n            \"Send more ETH.\"\n        );\n        payable(properties[propertyId].owner).transfer(msg.value);\n\n        properties[propertyId].isBooked = true;\n        properties[propertyId].bookingStartsAt = startDate;\n        properties[propertyId].bookingEndsAt = endDate;\n        properties[propertyId].guest = msg.sender;\n\n        emit PropertyBookedEvent(\n            propertyId,\n            msg.sender,\n            numberOfDays,\n            msg.value\n        );\n    }\n\n    function unBookProperty(uint256 propertyId) public {\n        require(\n            properties[propertyId].owner == msg.sender,\n            \"Only the Property Owner can unbook the property\"\n        );\n\n        require(\n            properties[propertyId].isBooked == true,\n            \"Property is not booked\"\n        );\n\n        properties[propertyId].isBooked = false;\n    }\n}",
  "sourcePath": "/Users/kevin/github/airbnb-infura-youtube/contracts/Airbnb.sol",
  "compiler": {
    "name": "solc",
    "version": "0.8.16+commit.07a7930e.Emscripten.clang"
  },
  "schemaVersion": "3.4.11",
  "updatedAt": "2023-02-08T23:20:39.413Z",
  "networkType": "ethereum",
  "devdoc": {
    "kind": "dev",
    "methods": {},
    "version": 1
  },
  "userdoc": {
    "kind": "user",
    "methods": {},
    "version": 1
  }
}